:020000040000FA
:06000000F2EF08F012000F
:020006001200E6
:0600080040EF06F01200BB
:02000E000100EF
:0C0010001A1200006A000000040000004A
:04001C00D9CFE6FF53
:10002000E1CFD9FFE652DF6ADFCF00F0450EE76E81
:100030000018E8AE02D0E73402D0E750005C0AE2D4
:1000400000000000000000000000000000000000B0
:10005000DF2AEAD7E552E552E7CFD9FF1200D9CF20
:10006000E6FFE1CFD9FFE652DF6ADFCF00F0090EED
:10007000E76E0018E8AE02D0E73402D0E750005C2B
:1000800003E2CCDFDF2AF1D7DF6ADFCF00F03B0EDF
:10009000E76E0018E8AE02D0E73402D0E750005C0B
:1000A0000BE2000000000000000000000000000063
:1000B00000000000DF2AE9D7E552E552E7CFD9FF7B
:1000C0001200D9CFE6FFE1CFD9FFE652DF6ADFCFDA
:1000D00000F0090EE76E0018E8AE02D0E73402D057
:1000E000E750005C03E2BBDFDF2AF1D7DF6ADFCF36
:1000F00000F0090EE76E0018E8AE02D0E73402D037
:10010000E750005C03E28ADFDF2AF1D7DF6ADFCF46
:1001100000F0310EE76E0018E8AE02D0E73402D0EE
:10012000E750005C0CE2000000000000000000004E
:1001300000000000000000000000DF2AE8D7E552C0
:10014000E552E7CFD9FF1200D9CFE6FFE1CFD9FFC3
:10015000E652DF6ADFCF00F0040EE76E0018E8AE6B
:1001600002D0E73402D0E750005C03E2AADFDF2AC6
:10017000F1D7DF6ADFCF00F0090EE76E0018E8AEB6
:1001800002D0E73402D0E750005C03E268DFDF2AE8
:10019000F1D7DF6ADFCF00F0090EE76E0018E8AE96
:1001A00002D0E73402D0E750005C03E237DFDF2AF9
:1001B000F1D7DF6ADFCF00F02C0EE76E0018E8AE53
:1001C00002D0E73402D0E750005C0DE200000000EE
:1001D000000000000000000000000000000000001F
:1001E0000000DF2AE7D7E552E552E7CFD9FF12003A
:1001F000ED0ED76ED66E1200F28EF28CF28AD59C7E
:10020000D59AD596F80ED5140709D56EF1DFD58E9F
:100210001200CD8ECD9CCF0ECD140009CD6ECD96A3
:10022000CD84CD82CD9015EF01F0CF6ACE6A120059
:10023000CD801200CD901200D9CFE6FFE1CFD9FFDB
:10024000040EE126CE50E66ED950020FE96EDACFE9
:10025000EAFFE552E750EE6EED6ACF50026E02C043
:1002600003F0026A020EDB500224006E030EDB5024
:100270000320016E00C0DEFF01C0DDFFDECF00F015
:10028000DDCF01F000C0F3FF01C0F4FF040EE15C1C
:1002900003E200D0E16AE552E16EE552E7CFD9FF13
:1002A0001200D9CFE6FFE1CFD9FFFD0EDBCF00F082
:1002B000FE0EDBCF01F0100E005C270E015830E37C
:1002C000FD0EDBCF00F0FE0EDBCF01F0100E2B6E2B
:1002D000270E2C6E00C026F001C027F0CCEC08F0F1
:1002E00026C000F027C001F00A0E2B6E2C6A00C059
:1002F00026F001C027F0CCEC08F022C000F023C0AB
:1003000001F0300E0026000E0122FB0EDBCFE9FFCC
:10031000DB2AFC0EDBCFEAFF01E3DB2A00C0EFFFA4
:10032000FD0EDBCF00F0FE0EDBCF01F0E80E005C2F
:10033000030E015830E3FD0EDBCF00F0FE0EDBCFE5
:1003400001F0E80E2B6E030E2C6E00C026F001C0EB
:1003500027F0CCEC08F026C000F027C001F00A0E10
:100360002B6E2C6A00C026F001C027F0CCEC08F000
:1003700022C000F023C001F0300E0026000E012242
:10038000FB0EDBCFE9FFDB2AFC0EDBCFEAFF01E34C
:10039000DB2A00C0EFFFFD0EDBCF00F0FE0EDBCF4F
:1003A00001F0640E005C000E01582FE3FD0EDBCF60
:1003B00000F0FE0EDBCF01F0640E2B6E2C6A00C045
:1003C00026F001C027F0CCEC08F026C000F027C0D2
:1003D00001F00A0E2B6E2C6A00C026F001C027F037
:1003E000CCEC08F022C000F023C001F0300E002653
:1003F000000E0122FB0EDBCFE9FFDB2AFC0EDBCF78
:10040000EAFF01E3DB2A00C0EFFFFD0EDBCF00F0C7
:10041000FE0EDBCF01F00A0E005C000E01582FE348
:10042000FD0EDBCF00F0FE0EDBCF01F00A0E2B6ECF
:100430002C6A00C026F001C027F0CCEC08F026C0E2
:1004400000F027C001F00A0E2B6E2C6A00C026F0C7
:1004500001C027F0CCEC08F022C000F023C001F06E
:10046000300E0026000E0122FB0EDBCFE9FFDB2A57
:10047000FC0EDBCFEAFF01E3DB2A00C0EFFFFD0E3D
:10048000DBCF00F0FE0EDBCF01F00A0E2B6E2C6AE4
:1004900000C026F001C027F0CCEC08F022C000F02C
:1004A00023C001F0300E0026000E0122FB0EDBCF30
:1004B000E9FFDB2AFC0EDBCFEAFF01E3DB2A00C009
:1004C000EFFFFB0EDBCFE9FFFC0EDBCFEAFFEF6AAD
:0804D000E552E7CFD9FF12004D
:0804D800D9CFE6FFE1CFD9FF07
:1004E000140EE126D9CFE9FFDACFEAFFFB0EDBCF0E
:1004F000EEFFFC0EDBCFEEFFFD0EDBCFEEFFFE0EC0
:10050000DBCFEEFFD950F70FE96EFF0EDA20EA6E6F
:10051000040EEECFDBFF050EEECFDBFF060EEECFB7
:10052000DBFF070EEECFDBFFD950F30FE96EFF0EB6
:10053000DA20EA6E080EEECFDBFF090EEECFDBFF0E
:100540000A0EEECFDBFF0B0EEECFDBFF0C0EDB6AED
:100550000D0EDB6A0E0EDB6A0F0EDB6A100EDB6A15
:10056000110EDB6A120EDB6A130EDB6AD9CFE9FFCC
:10057000DACFEAFFEECF00F0EECF01F0EECF02F0DF
:10058000EECF03F0EECF04F0EECF05F0EECF06F0A5
:10059000EECF07F0EECF08F0EECF09F0EECF0AF085
:1005A000EECF0BF0EECF0CF0EECF0DF0EECF0EF065
:1005B000EECF0FF0EECF10F0EECF11F0EECF12F045
:1005C000EFCF13F0D9CFE9FFDACFEAFFED50ED50CE
:1005D00013C0EDFF12C0EDFF11C0EDFF10C0EDFF25
:1005E0000FC0EDFF0EC0EDFF0DC0EDFF0CC0EDFF25
:1005F0000BC0EDFF0AC0EDFF09C0EDFF08C0EDFF25
:1006000007C0EDFF06C0EDFF05C0EDFF04C0EDFF24
:1006100003C0EDFF02C0EDFF01C0EDFF00C0EFFF22
:10062000140EE15C03E200D0E16AE552E16EE552AE
:10063000E7CFD9FF1200D9CFE6FFE1CFD9FF0C0EEB
:10064000E126F90EDBCF00F0FA0EDBCF01F0FB0E56
:10065000DBCF02F0FC0EDBCF03F0F50EDBCF04F0B6
:10066000F60EDBCF05F0F70EDBCF06F0F80EDBCF92
:1006700007F004C02AF005C02BF006C02CF007C01C
:100680002DF000C025F001C026F002C027F003C005
:1006900028F0B6EC04F025C0DEFF26C0DEFF27C040
:1006A000DEFF28C0DDFFDD52DD52D9CFE9FFDACF12
:1006B000EAFFEECF00F0EECF01F0EECF02F0EFCF89
:1006C00003F0FD0EDBCFE9FFFE0EDBCFEAFF0C0EE1
:1006D000E926000EEA22EECF25F0EECF26F0EECF8F
:1006E00027F0EFCF28F000C02AF001C02BF002C0A5
:1006F0002CF003C02DF0B7EC04F028C0EDFF27C0AC
:10070000EDFF26C0EDFF25C0EFFF080EEECFDBFFAB
:10071000090EEECFDBFF0A0EEECFDBFF0B0EEECFA6
:10072000DBFFF50EDBCF00F0F60EDBCF01F0F70EAE
:10073000DBCF02F0F80EDBCF03F0FD0EDBCFE9FFDD
:10074000FE0EDBCFEAFF100EE926000EEA22EECF06
:1007500004F0EECF05F0EECF06F0EFCF07F004C0C7
:100760002AF005C02BF006C02CF007C02DF000C009
:1007700025F001C026F002C027F003C028F0B6EC37
:1007800004F0040E25C0DBFF050E26C0DBFF060EBD
:1007900027C0DBFF070E28C0DBFFFD0EDBCFE9FF24
:1007A000FE0EDBCFEAFF100EE926000EEA22F50E60
:1007B000DBCFEEFFF60EDBCFEEFFF70EDBCFEEFF6B
:1007C000F80EDBCFEEFFFD0EDBCFE9FFFE0EDBCF39
:1007D000EAFFEECF0CF0EECF0DF0EECF0EF0EFCF44
:1007E0000FF00CC025F00DC026F00EC027F00FC092
:1007F00028F0000EDFCF2AF0010EDBCF2BF0020E27
:10080000DBCF2CF0030EDBCF2DF04DEC05F025C037
:1008100008F026C009F027C00AF028C00BF0FD0E32
:10082000DBCFE9FFFE0EDBCFEAFF040EE926000E68
:10083000EA22EECF14F0EECF15F0EECF16F0EFCFA8
:1008400017F014C025F015C026F016C027F017C009
:1008500028F0080EDBCF2AF0090EDBCF2BF00A0EB2
:10086000DBCF2CF00B0EDBCF2DF04DEC05F025C0CF
:1008700010F026C011F027C012F028C013F010C0ED
:100880002AF011C02BF012C02CF013C02DF008C0BC
:1008900025F009C026F00AC027F00BC028F0B7ECFD
:1008A00004F025C004F026C005F027C006F028C0DB
:1008B00007F0FD0EDBCFE9FFFE0EDBCFEAFF080EEF
:1008C000E926000EEA22EECF1CF0EECF1DF0EECFAF
:1008D0001EF0EFCF1FF01CC025F01DC026F01EC07B
:1008E00027F01FC028F0040EDBCF2AF0050EDBCF67
:1008F0002BF0060EDBCF2CF0070EDBCF2DF04DECEE
:1009000005F025C018F026C019F027C01AF028C03D
:100910001BF018C02AF019C02BF01AC02CF01BC015
:100920002DF004C025F005C026F006C027F007C052
:1009300028F0B7EC04F025C000F026C001F027C075
:1009400002F028C003F000C024F001C025F002C06E
:1009500026F003C027F00C0EE15C03E200D0E16A50
:0C096000E552E16EE552E7CFD9FF12002E
:04096C002D7E2F6A43
:1009700012EC06F02AEC06F02FB6BAEF05F02FA223
:100980000AD02FAA03D02FBEBAEF05F02FA4C6EFCE
:1009900005F0C3EF05F02FAA05D02FACC6EF05F088
:1009A000C3EF05F02FA00AD02FA808D02FBE04D087
:1009B0002FA402D0CFEF05F0D3EF05F0326A236AFF
:1009C0002D50285C316E10E325C033F026C020F096
:1009D00027C021F028C030F02AC025F02BC026F017
:1009E0002CC027F02F3A09D02AC033F02BC020F0BA
:1009F0002CC021F02DC030F0316C2F9E2FBC2F8EDB
:100A000030C022F02FB002EF06F01A0E316002EF74
:100A100006F0226A286A2FA408D0256C261E271EFD
:100A2000281EE86A2622272228222FAC08D0336C01
:100A3000201E211E221EE86A202221222222246A50
:100A4000315207E028342732263225322432312E23
:100A5000F9D725503326265020222750212228500E
:100A6000222224C032F02F9E22AE0BD0326C331ED5
:100A7000201E211E221EE86A332220222122222249
:100A80002F8E22A006D0D88021322032333232324B
:100A9000302A30C022F0D6EF05F02F6A12EC06F0B3
:100AA0002AEC06F02FB6BAEF05F02FA205D02FB82A
:100AB000BAEF05F0C1EF05F02FAA05D02FB0BAEFBD
:100AC00005F0C1EF05F02FB002D02FA802D0CDEF76
:100AD00005F0236A2D502824226EE86A23227E0E18
:100AE000225EE86A235A326A336A206A216A2C50ED
:100AF0002702F4CF21F0F3CF20F02B502702F35040
:100B00003326F4502022000E21222C502602F350CE
:100B10003326F4502022000E21222A502702F350BF
:100B20003226F4503322000E202221222B5026029E
:100B3000F3503226F4503322000E202221222C5072
:100B40002502F3503226F4503322000E20222122B7
:100B50002A502602F4503226000E3322202221226F
:100B60002B502502F4503226000E3322202221225F
:100B7000D6EF05F07F0E286EFF0E276E266E256ECF
:100B800012007F0E2FBEFF0E286E02D07F0E286E41
:100B9000800E276E266A256AF3D72FAE04D0800E0A
:100BA000286E276AF7D7286A276AF4D721502010C1
:100BB00033103210F8E023BEF0D721BE0CD0225003
:100BC0002310EBE0D8903236333620362136220619
:100BD000D8A02306F2D72350D4E12228D2E032AEA7
:100BE00011D07F0E321402E133A00CD0332AE86A10
:100BF0002022212207E3D880213220323332222AD8
:100C00002228BFE02250C9E033C025F020C026F0E2
:100C10002134276E2230286E2732289E2FBE288E40
:100C2000C0EF05F02736283602E32F842F7E06E139
:100C30002F80286A276A266A256A1200282803E07E
:100C4000D88027321200D890273202E12F8212007A
:100C50002F8612002C362D3602E32F8C2F7E06E1D4
:100C60002F882D6A2C6A2B6A2A6A12002D2803E02D
:100C7000D8802C321200D8902C32EAE12F8A120050
:100C8000DACFE4FFE2CFDAFFE9CFE4FFEACFE4FF17
:100C9000F6CFE4FFF7CFE4FFF5CFE4FFF3CFE4FFB7
:100CA000F4CFE4FFFACFE4FF00EE20F0140EE804E6
:100CB00003E3EECFE4FFFBD700EE00F0200EE804E4
:100CC00003E3EECFE4FFFBD7E652F2A407D0010E18
:100CD00000016A6F6B6BF8EC00F0F294E55200EEE5
:100CE0001FF0200EE80403E3E5CFEDFFFBD700EE95
:100CF00033F0140EE80403E3E5CFEDFFFBD7E5CFB7
:100D0000FAFFE5CFF4FFE5CFF3FFE5CFF5FFE5CF41
:100D1000F7FFE5CFF6FFE5CFEAFFE5CFE9FFE5CF47
:100D2000DAFF1100806A816A826A836A846AF0EC61
:100D300006F00CEC08F000EC09F0E66A80EC07F035
:100D4000E552010EE66E80EC07F0E552E66AE668D1
:100D5000030EE66EAEEC07F0E552E552E552010EE9
:100D6000E66EE668030EE66EAEEC07F0E552E5527D
:100D7000E552120012001200D9CFE6FFE1CFD9FFF1
:100D8000E652D0DF93829384F5DFFCEC00F082849E
:100D9000828281A206D0010EE66E17EC08F0E552C1
:100DA00005D0010EE66E4AEC08F0E55281A406D0AB
:100DB000020EE66E17EC08F0E55205D0020EE66E64
:100DC0004AEC08F0E55200016A516B1101E1FBD7D2
:100DD0006A6B6B6BDCD7E552E552E7CFD9FF1200A7
:100DE000C19AC198F00EC1140909C16EC08EC70E18
:100DF000C0142809C06EF80EC0140609C06EC28067
:100E00001200D9CFE6FFE1CFD9FF030EE126FE0E97
:100E1000DB500F0BF36EF346F346C30EC214F31010
:100E2000C26EC250020B01E0010EDF6EDF5005E022
:100E3000010EDB6A020EDB6A06D0010EF36EF3CF01
:100E4000DBFF020EDB6A010EDB50006E030EE15C7D
:100E500003E200D0E16AE552E16E0050E552E7CFCF
:100E6000D9FF1200D9CFE6FFE1CFD9FFFE0EDB504C
:100E70000F0BF36EF346F346C30EC214F310C26EAB
:100E8000C282E552E7CFD9FF1200D9CFE6FFE1CF0A
:100E9000D9FF040EE126FE0EDB500F0BF36EF34676
:100EA000F346C30EC214F310C26EC350DE6EDD6A89
:100EB000030EC414026E036A02C003F0026ADE501D
:100EC0000224006EDD500320016E020E00C0DBFF25
:100ED000030E01C0DBFF020EDBCF00F0030EDBCF01
:100EE00001F000C0F3FF01C0F4FF040EE15C03E277
:100EF00000D0E16AE552E16EE552E7CFD9FF12007A
:100F0000D9CFE6FFE1CFD9FFCB68FC0ECA16FE0EA3
:100F1000DB500EE1FE0EDBCFE6FF000EE66EE66A6A
:100F20001DD8E552E552E552829494940C0EBA1203
:100F3000FE0EDB040EE1FE0EDBCFE6FF000EE66EDA
:100F4000E66A0CD8E552E552E552829294920C0E74
:100F5000BD12CA84E552E7CFD9FF1200D9CFE6FF10
:100F6000E1CFD9FFFC0EDB5028E1FD0EDBCF00F016
:100F7000FE0EDBCF01F0FF0E0016030E0116D89017
:100F800001320032D890013200320050BB6E020EA6
:100F9000E76EFD0EDBCF00F0FE0EDBCF01F0E75079
:100FA0000016016A0050030BF36EF346F346F34656
:100FB000F346CF0EBA14F310BA6EFC0EDB0428E130
:100FC000FD0EDBCF00F0FE0EDBCF01F0FF0E0016B2
:100FD000030E0116D89001320032D890013200324F
:100FE0000050BE6E020EE76EFD0EDBCF00F0FE0E6F
:100FF000DBCF01F0E7500016016A0050030BF36EDF
:10100000F346F346F346F346CF0EBD14F310BD6E20
:08101000E552E7CFD9FF120001
:08101800959495969598959A20
:10102000959C959E95909592949C949E1200D9CFF4
:10103000E6FFE1CFD9FFFE0EDB500A0A25E0030AE6
:1010400021E0010A1DE00F0A19E0010A15E0030A78
:1010500011E0010A0DE0070A09E0010A05E0030AB0
:1010600001E014D0838012D0838210D0828C0ED005
:10107000828E0CD083840AD0838608D0838806D0E1
:10108000838A04D0838C02D0838E00D0E552E7CFD0
:10109000D9FF1200D9CFE6FFE1CFD9FFFE0EDB501A
:1010A0000A0A25E0030A21E0010A1DE00F0A19E0FF
:1010B000010A15E0030A11E0010A0DE0070A09E040
:1010C000010A05E0030A01E014D0839012D0839254
:1010D00010D0829C0ED0829E0CD083940AD083962E
:1010E00008D0839806D0839A04D0839C02D0839E34
:0A10F00000D0E552E7CFD9FF12004F
:0610FA000E0EF66E000E62
:10110000F76E000EF86E00010900F550656F0900DA
:10111000F550666F03E1656701D03DD00900F550D9
:10112000606F0900F550616F0900F550626F0900AA
:101130000900F550E96E0900F550EA6E0900090052
:101140000900F550636F0900F550646F090009004C
:10115000F6CF67F0F7CF68F0F8CF69F060C0F6FF20
:1011600061C0F7FF62C0F8FF0001635302E16453FE
:1011700007E00900F550EE6E6307F8E26407F9D75F
:1011800067C0F6FF68C0F7FF69C0F8FF0001650798
:08119000000E665BBFD71200E0
:08119800236A226A100EE76EC3
:1011A000D89026362736223623362B50225C2C50F8
:1011B000235805E32B50225E2C50235A262AE72E73
:0411C000F0D7120052
:0C11C400000EF36E00EE00F0080E01D8E3
:1011D0001200EA6002D0EE6AFCD7F350E960120018
:0411E000EE6AFCD7E0
:0C11E40013EE00F023EE00F0F86A2F9CE0
:1011F0007DEC08F003EC00F0BCEC06F0FBD712002D
:1012000081989398818A939A818C939C819E939ED6
:0A121000828494948282949212006A
:04121A00000032009E
:00000001FF
