:1000000060EF31F00000000000EF00F000000000A1
:0A0010000000000000000000F3D71C
:0462BC0003001200C9
:1062C000156A166A176A000E006E040E016E005001
:1062D000011000E00F0EC16E928680B60DD0000E48
:1062E0005B6E050E5C6E400E5D6E050E5E6E7DECA7
:0E62F0003BF093EC3BF002D0C16AE0DFFFD739
:1062FE000B6A0A6A096A00500402F4CF09F0F3CF60
:10630E0008F001500502F4CF0BF0F3CF0AF0005065
:10631E000502F3500926F4500A22E86A0B220150B6
:10632E000402F3500926F4500A22E86A0B2208C030
:10633E0000F009C001F00AC002F00BC003F0120019
:10634E001E0E716E100E1E6E040E1F6E1EC0E1FF2D
:10635E001FC0E2FFE69E1EC0E1FF1FC0E2FFE69CEB
:10636E00040E1E24E16E000E1F20E26EE68C180E47
:10637E001A6E040E1B6E1AC0E1FF1BC0E2FFE69EF2
:10638E001AC0E1FF1BC0E2FFE69C040E1A24E16E68
:10639E00000E1B20E26EE68C020E1E24E16E000E35
:1063AE001F20E26E23C0E6FF24C0E6FF010E1E246E
:1063BE00E16E000E1F20E26E400EE66E1EC0E9FF7B
:1063CE001FC0EAFFEECF00F01EC0E1FF1FC0E2FFCC
:1063DE00400E0014E66E1EC0E9FF1FC0EAFFEECFAE
:1063EE0000F01EC0E1FF1FC0E2FF880E0010E66E37
:1063FE001EC021F01FC022F0040E1E18006E00C039
:04640E001EF012006A
:1064120004012251010A0FE120C401F01F0E0116EE
:106422000150000A08E1388E2151030A03E1010EEE
:10643200206E01D0206A2251000AD8A48BD020C439
:1064420001F01F0E01160150020AD8A483D024C401
:1064520001F00F0E01160150000AD8B47BD0388E1D
:1064620024BF16D024C403F00F0E031603C000F09D
:10647200000E016E0036009001361C0E0024E96EFB
:10648200000E0120EA6EEECF04F0EECF05F015D03B
:1064920024C403F00F0E031603C000F0000E016EB9
:1064A200003600900136180E0024E96E000E01201D
:1064B200EA6EEECF04F0EECF05F02151030A07E1B8
:1064C20004C0E1FF05C0E2FF840EE66E43D024C49F
:1064D20000F00F0E0016700E026E0F0E036E0050CB
:1064E2000226D8B0032A02C0E9FF03C0EAFFFE0E6B
:1064F200EE14006EEECF01F0FF0E011602C0E1FFB6
:1065020003C0E2FF00C0E6FF01C0E6FF24AF11D0E6
:1065120004C0E1FF05C0E2FFE66A040E0418006E43
:1065220000C004F004C0E1FF05C0E2FF400EE66EC9
:1065320011D004C0E1FF05C0E2FF880EE66E040E32
:106542000418006E00C004F004C0E1FF05C0E2FFC1
:06655200C80EE66E120007
:106558000401286B296B42D0388E28812050010A0B
:10656800D8B4288350D0388E4ED0388E24BF16D059
:1065780024C403F00F0E031603C000F0000E016ED2
:106588000036009001361C0E0024E96E000E012032
:10659800EA6EEECF04F0EECF05F015D024C403F078
:1065A8000F0E031603C000F0000E016E00360090B7
:1065B8000136180E0024E96E000E0120EA6EEECFB7
:1065C80004F0EECF05F004C0E9FF05C0EAFFEECF06
:1065D80001F001A402D0010E286F15D020C401F0EB
:1065E8001F0E01160150000AB7E020C401F01F0E6B
:1065F80001160150010AB7E020C401F01F0E011670
:106608000150020AB2E038AE07D0280E356E040EEB
:0A661800366E3880020E396E120053
:1066220020C401F01F0E01160150010A01E08DD0B5
:1066320004012451000A01E088D02151060A3FE1F9
:1066420034D04C50010A17E1220E006E780E016E12
:10665200000E026E120E0026000E0122022200C05F
:1066620035F001C036F002C037F0090E396E000E67
:106672003A6EC00E386E23D04C50010A12E1930ECE
:10668200006E780E016E000E026E00C035F001C081
:1066920036F002C037F0210E396E000E3A6EC00E8F
:1066A200386E0DD0800E386E0AD004012351210AB3
:1066B200C8E02351220AE0E02351230AF3E020C478
:1066C20001F0600E0116050E006E005004E001326A
:1066D200019EFF0FFBD70150010A01E036D022D004
:1066E20034D033D0490E356E000E366E010E396E3F
:1066F200000E3A6EC10E386E28D0800E386E23C45A
:1067020049F023D0480E356E000E366E010E396EFA
:10671200000E3A6E810E386E18D0800E386E22C48A
:1067220048F013D004012151010ADAE02151090A8B
:10673200D8E02151020AD6E021510A0ADEE02151B5
:0C674200030AE0E021510B0AE8E012001D
:10674E00000E3A5C02E1080E395C10E239C003F02B
:10675E003AC004F05650000A03E1010E566E05D001
:10676E005650010A02E1020E566E04D0080E036E58
:10677E00000E046E18C0E1FF19C0E2FFE69218C0C9
:10678E00E1FF19C0E2FFE69018C0E9FF19C0EAFF69
:10679E00EECF00F018C0E1FF19C0E2FF0450001068
:1067AE00E66E010E1824E16E000E1920E26E03C093
:1067BE00E6FF0350395C006E04503A58016E00C07B
:1067CE0039F001C03AF0280E466E040E476E38B00E
:1067DE002FD0035004102BE035C0F6FF36C0F7FF64
:1067EE0037C0F8FF0900F5CF00F046C0E1FF47C003
:1067FE00E2FF00C0E6FF464A472A010E3524006E2E
:10680E00000E3620016E000E3720026E00C035F0ED
:10681E0001C036F002C037F0010E035C006E000EB0
:10682E000458016E00C003F001C004F0D2D724D08A
:10683E000350041021E035C0E9FF36C0EAFF46C020
:10684E00E1FF47C0E2FFEECFE6FF464A472A010EC0
:10685E003524006E000E3620016E00C035F001C0EA
:10686E0036F0010E035C006E000E0458016E00C07F
:0A687E0003F001C004F0DCD71200A3
:1068880004012051800AD8A471D0C00E386E64D09B
:10689800B40E006E780E016E000E026E00C035F068
:1068A80001C036F002C037F0120E396E000E3A6E93
:1068B8005DD0030E006E000E016E22C404F0000EBF
:1068C800056E19DD320E0024E96E000E0120EA6E15
:1068D800EECF35F0EECF36F0EECF37F0020E35249E
:1068E800F66E000E3620F76E000E3720F86E09009F
:1068F800F5CF00F00900F5CF01F000C039F001C074
:106908003AF034D022514A5C23E3030E006E000EA5
:10691800016E22C404F0000E056EEDDC290E002481
:10692800E96E000E0120EA6EEECF35F0EECF36F0BC
:10693800EECF37F035C0F6FF36C0F7FF37C0F8FFA7
:106948000900F5CF00F000C039F0000E3A6E01D012
:10695800386A0CD0386A0AD02351010A99E02351C9
:0E696800020AA7E02351030ACDE0F4D7120083
:10697600388E716A4B6A22C44CF04C50000A03E10F
:0E698600100E406E03D0200E406EDEDC1200BC
:086994003B5201E044DE120059
:10699C0020C401F0600E0116050E006E005004E0DC
:1069AC000132019EFF0FFBD70150000A01E058D0C5
:1069BC0034D0388E080E406E53D060DF51D0D5DF06
:1069CC004FD04C0E356E000E366E3880010E396E7F
:1069DC00388E46D0BBDD44D016DD42D04B0E006E57
:1069EC00000E016E24510026D8B0012A00C035F0EB
:1069FC0001C036F03880010E396E388E31D0388EA9
:106A0C004B0EE16E000EE26E2451E126D8B0E22A64
:106A1C0022C4E6FF25D024D023D004012151050A3D
:106A2C00C8E02151060AC9E02151090AC8E02151E8
:106A3C00080AC7E02151000ACDE02151010ACCE03F
:106A4C002151030AC9E021510A0AC8E021510B0A5D
:106A5C00D6E02151070ADFE021510C0ADDE0DCD73A
:026A6C00120016
:0E6A6E00160E6F6E9F0E6B6E3B0E696E120061
:106A7C00220E326E780E336E000E346EC60E296EF8
:106A8C00780E2A6E000E2B6E710E2C6E780E2D6EFB
:106A9C00000E2E6E4B0E2F6E780E306E000E316E79
:026AAC001200D6
:106AAE00010E4424E96E000E4520EA6EEECF00F092
:106ABE0000C002F0000E515C02E10250505C03E295
:106ACE0050C002F00AD00250505C006E000E5158B9
:106ADE00016E00C050F001C051F0036A0250035C19
:106AEE001CE2280EE96E040EEA6E0350E926D8B0B9
:106AFE00EA2AEECF00F04DC0E1FF4EC0E2FF00C02B
:106B0E00E6FF010E4D24006E000E4E20016E00C0F9
:106B1E004DF001C04EF0032AE1D7000E006E515029
:106B2E00005C02E15050000828E2010E4224E16EA2
:106B3E00000E4320E26E080EE66E020E4224E16E57
:106B4E00000E4320E26E280EE66E040EE66E44C082
:106B5E00E9FF45C0EAFFEECF00F000BC07D042C00F
:106B6E00E1FF43C0E2FFC80EE66E06D042C0E1FF71
:106B7E0043C0E2FF880EE66E19D0010E4224E16E8C
:106B8E00000E4320E26E080EE66E020E4224E16E07
:106B9E00000E4320E26E200EE66E040EE66E42C03C
:0E6BAE00E1FF43C0E2FF840EE66E4F9E120030
:106BBC00576A18C0E1FF19C0E2FFE66A040E181804
:106BCC00E16E19C0E2FF000EE21AE66A4FBE4F9E5C
:026BDC001200A5
:106BDE006D9838BE49D04FAE28D0020E576E010EBA
:106BEE001824E16E000E1920E26EE66A18C0E1FF6D
:106BFE0019C0E2FFC80EE66E010E4224E16E000ED1
:106C0E004320E26E080EE66E020E4224E16E000E86
:106C1E004320E26E280EE66E040EE66E42C0E1FFE1
:106C2E0043C0E2FFC80EE66E1ED0010E4224E16E96
:106C3E00000E4320E26E080EE66E020E4224E16E56
:106C4E00000E4320E26E200EE66E040EE66E42C08B
:106C5E00E1FF43C0E2FF8C0EE66E18C0E1FF19C0E3
:106C6E00E2FF840EE66E7DD04FBE7BD0040120AFD6
:106C7E0051D03A50275D02E13950265D04E226C418
:106C8E0039F027C43AF05CDD010E576E010E422436
:106C9E00E16E000E4320E26E080EE66E020E4224F6
:106CAE00E16E000E4320E26E200EE66E040EE66EDE
:106CBE0042C0E1FF43C0E2FF800EE66E416A010E64
:106CCE004424E16E000E4520E26E080EE66E020EC2
:106CDE004424E16E000E4520E26E200EE66E040E98
:106CEE00E66E44C0E1FF45C0E2FF840EE66E010E83
:106CFE00416E020E1824E16E000E1920E26E280E6F
:106D0E00E66E040EE66E18C0E1FF19C0E2FFC80E73
:106D1E00E66E27D0020E576E010E1824E16E000E9D
:106D2E001920E26EE66A18C0E1FF19C0E2FFC80E34
:106D3E00E66E010E4224E16E000E4320E26E080E56
:106D4E00E66E020E4224E16E000E4320E26E280E25
:106D5E00E66E040EE66E42C0E1FF43C0E2FFC80ECF
:046D6E00E66E1200BB
:106D72006D92699468A403D0FB0E6816FBD71200CB
:106D820018C0E9FF19C0EAFFEECF00F000AE05D04F
:106D920018C0E1FF19C0E2FFE66A566A576A396A0B
:0C6DA2003A6A386AFADDF5DD19DF1200EC
:106DAE0070A019D044C0E9FF45C0EAFFEECF01F054
:106DBE000150800A0FE118C0E9FF19C0EAFFEECFBB
:106DCE0001F00150840A06E144C0E1FF45C0E2FF34
:0C6DDE008C0EE66E7090DF0E681612003E
:046DEA00A19A120058
:106DEE005750020A02E15CDE1ED0E1DE4150000A7D
:106DFE0019E1010E4224E16E000E4320E26E080EF0
:106E0E00E66E020E4224E16E000E4320E26E200E6C
:106E1E00E66E040EE66E42C0E1FF43C0E2FF8C0E4A
:086E2E00E66E01D0416A12007A
:106E3600040E1818006E00C018F04050080A0AE147
:106E460022C46EFF6E50000803E2100E406E02D0A0
:106E5600040E406E5750010A3AE1020E1824E16E04
:106E6600000E1920E26E280EE66E040EE66E6CDC4D
:106E76005650020A07E118C0E1FF19C0E2FF840E6E
:106E8600E66E24D0040E1818006E00C018F018C064
:106E9600E9FF19C0EAFFEECF00F000BC0CD0040EEB
:106EA6001818006E00C018F018C0E1FF19C0E2FF04
:106EB600C80EE66E0BD0040E1818006E00C018F04F
:106EC60018C0E1FF19C0E2FF880EE66E01D073DE3E
:026ED6001200A8
:106ED800D1DD216A226A256A266A6A6A686AC3DD80
:106EE8006D8C6E6A716A6D9C586A596A000E595C9D
:106EF80002E1080E585C17E258C000F059C001F0D2
:106F0800003600900136003600900136000E00244D
:106F1800E16E040E0120E26EE66AE66AE66AE66A57
:106F2800584A592AE3D7160E706E68A603D0F70E92
:106F38006816FBD7386A4F6A506A516A6D98080E0E
:0C6F4800186E040E196E4C6A406A1200AC
:0A6F54006984EF0E68166D821200CA
:106F5E00000E0001721902E1000E711902E1016AC0
:106F6E0009D071C0E9FF72C0EAFFEECF00F0016AEE
:0A6F7E0000BE012A01C000F012005D
:106F880000017251000A12E071C000F0000E016E9B
:106F9800003600900136180E0024E96E000E01201C
:106FA800EA6EEECF04F0EECF05F011D071C000F01C
:106FB800000E016E0036009001361C0E0024E96EAA
:106FC800000E0120EA6EEECF04F0EECF05F0020EBF
:106FD8000424E16E000E0520E26E73C0E6FF74C063
:106FE800E6FF010E0424E16E000E0520E26E75C076
:106FF800E6FF04C0E9FF05C0EAFFEECF00F004C0D9
:10700800E1FF05C0E2FF400E0014E66E04C0E9FF90
:1070180005C0EAFFEECF00F004C0E1FF05C0E2FFC3
:10702800880E0010E66E7251000A1BE071C000F075
:10703800000E016E003600900136180E0024026E14
:10704800000E0120036E02C0E9FF03C0EAFF040E30
:10705800EE18006E02C0E1FF03C0E2FF00C0E6FFC9
:107068001AD071C000F0000E016E00360090013693
:107078001C0E0024026E000E0120036E02C0E9FF00
:1070880003C0EAFF040EEE18006E02C0E1FF03C061
:10709800E2FF00C0E6FF04C000F005C001F01200E6
:1070A8004050000A09E16D6A696ADDDC6DB602D0FC
:1070B8006D86FCD7010E406E4050010A08E16DBA9A
:1070C80006D0686A696A69806988020E406E68A499
:1070D80005D069A403D0FB0E681647DE6DA202D066
:1070E80080DED6D068A018D069A016D0F1DE040ED4
:1070F800406E200E0401026F040E036F080E016F2C
:10710800000E0015006E00C000F48C0E0011006E19
:1071180000C000F4FE0E681668A805D069A803D060
:1071280015DFEF0E681668AC04D069AC02D0BF0E4C
:10713800681668AA03D069AA01D035DE68A202D011
:1071480069B26A6A040E405C02E24BDEA1D069A60D
:107158009ED00001726B040E725DD8B098D068A6FC
:1071680092D06CCF5AF0F70E6816780E5A14016E4A
:107178000150000AD8A486D0FD0E5A14016E026A86
:10718800FF0E0216000E021802E1000E01186CE153
:107198007E0E5A14016E01C003F00332039E03C031
:1071A80000F0000E016E00360090013600360090A7
:1071B8000136000E0024026E040E0120036E02C088
:1071C80044F003C045F002C042F003C043F0040E8F
:1071D8004218006E00C042F002C0E9FF03C0EAFF97
:1071E800EECF00F000C001F03C0E01160132019E06
:1071F8000132019E01500D0A35E1020E4424E96E68
:10720800000E4520EA6EEECF01F0EECF02F00250FC
:10721800040A02E1280E011823E10001020E4424A9
:10722800E16E000E4520E26E200EE66E040EE66E5C
:10723800716B080E715D14E2200EE16E040EE26EB1
:107248007151E126D8B0E22A280EE96E040EEA6EE2
:107258007151E926D8B0EA2AEECFE6FF712BE9D7BB
:107268008CDD01D0C0DD0DD0FD0E5A14016E026A0E
:10727800FF0E0216000E021802E1040E011801E1C9
:10728800D6DD00D001D003D00001722B64D7A9DD70
:027298001200E2
:10729A00200E405C03E36DB201D002D0006A39D0FF
:1072AA0025C071F026C072F055DE005231E170C07F
:1072BA0071F0010E726F6DC073F06EC074F06FC022
:1072CA0075F05DDE00C025F001C026F03C6A3D6A1B
:1072DA003E6A3F6A25C071F026C072F03BDE00525A
:1072EA000EE0000E016E0150000A01E1D8DE3C50AA
:1072FA003D103E103F1002E0006A0BD0EBD7010EA2
:10730A002524E96E000E2620EA6EEECF00F001D0A9
:04731A00006A1200F3
:10731E00200E405C03E36DB201D002D0006A23D090
:10732E0021C071F022C072F013DE00521BE1010E7B
:10733E002124E96E000E2220EA6EEECF00F000C08E
:10734E006BF06AC071F0726B67C073F068C074F056
:10735E0069C075F012DE00C021F001C022F06BC0D2
:08736E0000F001D0006A1200DA
:1073760067C06DF068C06EF069C06FF0010E000165
:06738600706F88DF1200A9
:0A738C00D08EA28AA08AF28E1200B1
:10739600B40E006E780E016E000E026E0E0E002404
:1073A600F66E000E0120F76E000E0220F86E090040
:1073B600F5CF03F003C004F00F0E0024F66E000EA6
:1073C6000120F76E000E0220F86E0900F5CF01F0DD
:1073D6000150035C12E2B40E006E780E016E000ED0
:1073E600026E0F0E0024F66E000E0120F76E000EE0
:1073F6000220F86E0900F5CF04F0B40E006E780E88
:10740600016E000E026E100E0024F66E000E0120B4
:10741600F76E000E0220F86E0900F5CF01F001505C
:10742600045C12E2B40E006E780E016E000E026E5F
:10743600100E0024F66E000E0120F76E000E0220DC
:0E744600F86E0900F5CF04F004C000F012004B
:087454006D6A696A406A1200CA
:10745C0000016A6B6B6B6C6B020E6725F66E000E8F
:10746C006821F76E000E6921F86E0900F5CF05F062
:10747C00030E6725F66E000E6821F76E000E69216B
:10748C00F86E0900F5CF00F000C003F0000E046E9A
:10749C0003C001F0006A05500024066E000E0120A6
:1074AC00076E67C008F068C009F069C00AF0010EE9
:1074BC000824F66E000E0920F76E000E0A20F86EF6
:1074CC000900F5CF01F00150020A1BE1060E082459
:1074DC00F66E000E0920F76E000E0A20F86E0900F9
:1074EC00F5CF01F001506A5D0CE2060E0824F66E31
:1074FC00000E0920F76E000E0A20F86E0900F5CF79
:10750C006AF0010E0824F66E000E0920F76E000ECC
:10751C000A20F86E0900F5CF01F00150040A1BE1B6
:10752C00080E0824F66E000E0920F76E000E0A20D5
:10753C00F86E0900F5CF01F001506A5D0CE2080EFF
:10754C000824F66E000E0920F76E000E0A20F86E65
:10755C000900F5CF6AF008C0F6FF09C0F7FF0AC0B2
:10756C00F8FF0900F5CF00F000506B25016E000EFE
:10757C006C21026E01C06BF002C06CF00750025C13
:10758C0002E10650015C01E30FD008C0F6FF09C010
:10759C00F7FF0AC0F8FF0900F5CF00F000500826ED
:0E75AC00000E09220A2283D76AC000F01200E6
:1075BA0023C067F024C068F0400E0001696F010E15
:0675CA006A6FA8DE12004A
:1075D0004050000A0BE16D6A696A37EC35F0D6DE7F
:0E75E0006DB602D06D86FCD7010E406E120013
:1075EE00D3DE00C05FF0220E0001676F780E686F69
:1075FE00000E696F2CDF00C060F05F50005C03E28C
:0C760E005FC000F002D060C000F012006D
:10761A00F2CF02F0F29E61C0F6FF62C0F7FF63C0CC
:10762A00F8FF65C0E9FF66C0EAFF0A00016A200E9A
:10763A00015C07E2EECFF5FF00000F000000012A0F
:10764A00F6D7A68EBF0EA616A684550EA76EAA0E4C
:10765A00A76EA682A69402BE02D0F29E01D0F28E36
:02766A0012000C
:10766C00F2CF00F0F29E61C0F6FF62C0F7FF63C07C
:10767C00F8FFA68EBF0EA616A684A688550EA76E7A
:10768C00AA0EA76EA682A69400BE02D0F29E01D0CE
:04769C00F28E120058
:0476A000D9DE12001D
:1076A4001750000A0EE1000E000A03E10F0E050157
:1076B400001901E006D001C517F002C516F003C594
:0476C40015F01200AB
:1076C8000F0E0501406F5FC041F5400E0001676F66
:1076D800050E686F400E696F4ADE005201E1F5D76A
:0276E80012008E
:1076EA000900F5CFE6FF0006FBE10106F9E1120009
:1076FA0079DF00C04AF0010E3B6E5BC023F05CC02C
:10770A0024F05DC027F05EC028F06CEC37F0000E64
:0C771A00016E0150010A01E156DF12006F
:107726005D6ABFDC47DF0052D8B476D0B8DF1750A9
:10773600010A14E1010E0501426F020E436FC00EED
:10774600446F620E456F466B800E476FFF0E486FA3
:10775600496B010E5F6EB5DF176A5ED01750030ADC
:1077660024E15D50000A03E1010E5D6E19D0000EA2
:10777600000808E1000E000805E1620E165C02E151
:10778600C00E155C0DE215C061F016C062F0000E69
:107796000001636F646F040E656F050E666F3ADF56
:1077A600030E5F6E8EDF176A37D01750040A23E187
:1077B6005B6A5C6A010E5C5C02E18B0E5B5C16E246
:1077C600060E006E5BC061F05CC062F0005006E021
:1077D6000001613761916237FF0FF9D70001000E92
:1077E600636F646F40DF5B4A5C2AE4D7040E5F6E0A
:1077F60068DF176A11D01750020A0EE1020E5F6E9B
:1078060060DF176A4ADF9C0E0C6ED70E0D6E0D2ECA
:0C781600FED70C2EFCD7FF0084D7120018
:10782200090229000101008032090400000203005C
:107832000000092101010001222100070581034006
:09784200000107050103400001EB
:10784B002603550053004200200048004900440025
:10785B00200042006F006F0074006C006F0061002D
:06786B00640065007200DC
:1078710022034D0069006B0072006F0065006C000F
:1078810065006B00740072006F006E0069006B0090
:02789100610094
:107893000600FF0901A10119012940150026FF0077
:1078A3007508954081021901294075089540910298
:0178B300C014
:1078B40012010002000000080100010001000102A1
:0278C4000001C1
:0478C60004030904AA
:020000040030CA
:0E000000240E3F1EFF8380FF0FC00FE00F4055
:00000001FF
