:020000040000FA
:06000000D6EF02F0120031
:020006001200E6
:060008000EEF00F01200F3
:02000E000100EF
:0C001000CE0500006A00000002000000A5
:04001C00DACFE4FF54
:10002000E2CFDAFFE9CFE4FFEACFE4FFF6CFE4FF67
:10003000F7CFE4FFF5CFE4FFF3CFE4FFF4CFE4FF25
:10004000FACFE4FF00EE06F0020EE80403E3EECF81
:10005000E4FFFBD700EE00F0060EE80403E3EECF6A
:10006000E4FFFBD7E652F2A407D0010E00016A6F4D
:100070006B6BB5EC02F0F294E55200EE05F0060E63
:10008000E80403E3E5CFEDFFFBD700EE07F0020E37
:10009000E80403E3E5CFEDFFFBD7E5CFFAFFE5CFBB
:1000A000F4FFE5CFF3FFE5CFF5FFE5CFF7FFE5CFB1
:1000B000F6FFE5CFEAFFE5CFE9FFE5CFDAFF110074
:1000C000806A816A826A836A846AB4EF00F0B9EC5C
:1000D00002F0010E44D8020E42D8030E40D8040E9E
:1000E0003ED8050E3CD8060E3AD8070E38D8080E72
:1000F00036D8090E34D80A0E32D8E668030EE66EFA
:10010000E66A9BEC02F0E552E552E552E668020E23
:10011000E66E010EE66E9BEC02F0E552E552E5520A
:1001200081A205D0020EE66EBFEC00F004D0020EF4
:10013000E66EEAEC00F0E55281A405D0010EE66E11
:10014000BFEC00F004D0010EE66EEAEC00F0E552E0
:1001500000016A516B11FCE06A6B6B6BE1D7E66ED4
:08016000BFEC00F0E5521200B3
:08016800959495969598959ADF
:10017000959C959E95909592949C949E120055D82E
:1001800024E0030A20E0010A1CE00F0A18E0010A3B
:1001900014E0030A10E0010A0CE0070A08E0010A73
:1001A00004E0030A13E1838011D083820FD0828C94
:1001B0000DD0828E0BD0838409D0838607D08388AC
:1001C00005D0838A03D0838C01D0838EE552E7CF9C
:1001D000D9FF12002AD824E0030A20E0010A1CE01B
:1001E0000F0A18E0010A14E0030A10E0010A0CE00B
:1001F000070A08E0010A04E0030A13E1839011D022
:1002000083920FD0829C0DD0829E0BD0839409D014
:10021000839607D0839805D0839A03D0839C01D01E
:10022000839EE552E7CFD9FF1200D9CFE6FFE1CF99
:0A023000D9FFFE0EDB500A0A12008F
:06023A00D9CFE6FFE1CF81
:10024000D9FFCB68FC0ECA16FE0EDB5005E14FD875
:10025000829494940C0EBA12FE0EDB0405E147D88A
:10026000829294920C0EBD12CA84E552E7CFD9FF58
:100270001200D9CFE6FFE1CFD9FFFC0EDB5006E13B
:1002800012D8BB6E22D8BA14F310BA6EFC0EDB047F
:1002900006E109D8BE6E19D8BD14F310BD6EE55243
:1002A000E7CFD9FF1200FD0EDBCF00F0FE0EDBCF53
:1002B00001F0FF0E0016030E0116D8900132003235
:1002C000D8900132003200501200020EE76EFD0E8F
:1002D000DBCF00F0FE0EE7500016016A0050030B62
:1002E000F36EF346F346F346F346CF0E1200FE0ECE
:1002F000DBCFE6FF000EE66EE66ABBDFE552E552B5
:04030000E5521200B0
:0C030400C30EC2140009C26EC19AC19859
:10031000F00EC1140909C16EC08EC70EC0142809A1
:10032000C06EF80EC0140609C06EC2801200D9CF8C
:10033000E6FFE1CFD9FF020EE126C250020B01E039
:10034000010EDF6EDF5003E0010EDB6A03D0DE52E8
:10035000010EDD6EDB50006E020EE15C02E2E16A2E
:10036000E552E16E0050E552E7CFD9FF1200C2829C
:100370001200D9CFE6FFE1CFD9FF040EE126C3502A
:10038000DE6EDD6A030EC414036E026ADE500224C0
:10039000006EDD500320016E020E00C0DBFF030E75
:1003A00001C0DBFF020EDBCF00F0030EDBCF01F05C
:1003B00000C0F3FF01C0F4FF040EE15C02E2E16A59
:0C03C000E552E16EE552E7CFD9FF1200D4
:0403CC0082EF01F0CB
:1003D000B9EF01F0D9CFE6FFE1CFD9FF0D0EE1264D
:1003E000DF6ADFCF00F0060EE76E0018E8AE02D03D
:1003F000E73402D0E750005C2EE2DF500F0BF36EC3
:10040000F346F346C30EC214F310C26EB7EC01F00C
:1004100097EC01F00009FCE0B9EC01F0F3CF04F037
:10042000F4CF05F0D950010F006EDACF01F0DFCF25
:1004300002F0036A02BE0368D89002360336005009
:100440000224E96E01500320EA6E04C0EEFF05C0ED
:10045000EDFFDF2AC6D7D950010FF36EDACFF4FFD4
:100460000D0EE15C02E2E16AE552E16EE552E7CF92
:04047000D9FF12009E
:0C0474000E0EF66E000EF76E000EF86E15
:1004800000010900F550656F0900F550666F03E142
:10049000656701D03DD00900F550606F0900F55047
:1004A000616F0900F550626F09000900F550E96EAF
:1004B0000900F550EA6E090009000900F550636F64
:1004C0000900F550646F09000900F6CF67F0F7CF17
:1004D00068F0F8CF69F060C0F6FF61C0F7FF62C056
:1004E000F8FF0001635302E1645307E00900F5508F
:1004F000EE6E6307F8E26407F9D767C0F6FF68C0DD
:10050000F7FF69C0F8FF00016507000E665BBFD703
:020510001200D7
:0E0512009398939A939E939C8198818A818EF0
:10052000819CE66A1DEC01F0E552010EE66E1DECC1
:1005300001F0E5521200D9CFE6FFE1CFD9FFFC0E62
:10054000DBCFE6FFFE0EDBCF00F0016A00BE0168E4
:1005500000C0E6FF01C0E6FF39EC01F0E552E552CC
:0A056000E552E552E7CFD9FF120083
:06056A00ED0ED76ED66E07
:100570001200F28EF28CF28AD59CD59AD596F80E9E
:0C058000D5140709D56EF1DFD58E1200EE
:04058C00000EF36EFC
:1005900000EE00F0080E01D81200EA6002D0EE6A08
:0C05A000FCD7F350E9601200EE6AFCD7B3
:0405AC0013EE00F05A
:1005B00023EE00F0F86A079C3AEC02F003EC00F03E
:0805C00067EC00F0FBD712000C
:0605C800938293821200F1
:0205CE0000002B
:00000001FF
